:020000000F28C7
:10000800FE00030EF4000408F5000A08F600831247
:100018007F08F700C329242A3808FF3A03191D2846
:1000280001303102F53003193002031C1D282E114E
:10003800AE213808FF3A031D2A2801303102F53075
:1000480003193002031C2A28B001B1013808FF3A0D
:10005800031D3C2800303102C93003193002031C4B
:100068003C2801302E11C901C6008030C700C801E4
:100078003808FF3A03194428B00A0319B10A462878
:10008800B001B1012E1D08003808FF3A031D080011
:1000980007302E11C90A4902031C8428C901842883
:1000A8000130C6008030C700C80108000230C60011
:1000B8008030C7006430C80008000330C6008030B4
:1000C800C7004630C80008000430C6008030C700AA
:1000D8002830C80008000530C6008030C7000A3044
:1000E800C80008000630C6008030C7006430C80069
:1000F80008000730C6008030C7003230C80008004A
:1001080049088400073004020318080002308A00F6
:10011800633004078200080083160515831205085A
:10012800FD000430FD057D08043A03199E28FC01F2
:10013800AE14AA280430AE10FC0A7C02031CA928BD
:10014800FF30FC01AE15B800B900FB01FD08031D26
:10015800B028B801B80AB228FF30B800AE1C0800B1
:1001680038087A060319BC283808FA00FB01080089
:100178000430FB0A7B02031C0800FB01AE1D0800CB
:100188003808B900FF3A031908002E15AE11FC0112
:1001980008004708803A0319F52800294808C000D4
:1001A800C10101217D220000000000000000630061
:1001B800000000000000000080308312C601C70064
:1001C800FF30B900AE1508004808C000C101012180
:1001D8007A2A4808C000C1010121B318EC287D2AF9
:1001E800AE294608840008300402031808000230CB
:1001F8008A004B300407820008004108BB00400811
:10020800BA000A30BC00BD0164213B08C5003A08A9
:10021800C4004508C3004408C2000310C30CC20C44
:100228000310C30CC20C420893000330C405F0301D
:10023800C501C40EC50EC50544080F39C504F03004
:10024800C40544080C3E950008003218B21808008E
:100258002308220421042004031D34293210080035
:100268000130F000F101F201F301A0027108031C52
:10027800710FA1027208031C720FA2027308031CFB
:10028800730FA3020800321D08002708260425045E
:100298002404031D5129321108000130F000F10136
:1002A800F201F301A4027108031C710FA502720880
:1002B800031C720FA6027308031C730FA702080021
:1002C800BE01BF013A1C6E293C08BE070318BF0ACD
:1002D8003D08BF070310BC0DBD0D0310BB0CBA0CC5
:1002E8003B083A04031D66293F08BB003E08BA00D4
:1002F8000800AA0A0319AB0A00302B02FA300319C6
:100308002A02031C08000030AA01AB013314B31CF5
:100318000130F000F00D33087006FD397006B300A7
:100328003315080006303216F90A7902031C9E2993
:10033800F901F90A7908FF3E031C0800840005301A
:1003480004020318080002308A007530040782008E
:10035800080090280430B60A3602031C0800B601CB
:10036800341CBA29C80BBF293410BF296430C80A05
:100378004802031834144808C000C10101290B1DA4
:10038800CB29D0300B1181005322013087060B187E
:100398000B107708FF0076088A0075088400740E31
:1003A8008300FE0E7E0E090083169101FF30870040
:1003B8008312870183160710871085008312850131
:1003C80083161515811316158B1508006A2202303D
:1003D8008312C901C90AC6008030C7006430C8004A
:1003E8007022023087061020CD20F4290C309500A9
:1003F800C8014808C000C1010121F93083169200E4
:100408000730831292007A2AA80A0319A90A03302E
:100418002902E83003192802031C0800A801A901D1
:10042800B3170800AC0A0319AD0A01302D02F430E5
:1004380003192C02031C0800AC01AD013316080097
:10044800783084007E3043222030831384003A3091
:1004580043228301EA29D0308112811101158110CC
:100468000110831281000B118B1608000A30F80A5C
:100478007802031C0800F801B2163217080064005D
:100488008001840A0406031900340406442A00295A
:10049800D228E828E828E828E828ED28F42829219F
:1004A80096213A225B227D211622082247296430B0
:1004B800B70A3702031C0800B701B217080054280E
:1004C8005A28612868286F2876287D288022D82114
:1004D8002F22FA218B1708008312B21E702AB2123B
:1004E8000800AC29AD29AC29AC29AC2983168712A0
:0A04F80008008316871608000800AC
:02400E0084FF2D
:00000001FF
